{"abi":[{"type":"constructor","inputs":[],"stateMutability":"nonpayable"},{"type":"function","name":"DEFAULT_ADMIN_ROLE","inputs":[],"outputs":[{"name":"","type":"bytes32","internalType":"bytes32"}],"stateMutability":"view"},{"type":"function","name":"ROOM_OWNER_ROLE","inputs":[],"outputs":[{"name":"","type":"bytes32","internalType":"bytes32"}],"stateMutability":"view"},{"type":"function","name":"SUPER_ADMIN_ROLE","inputs":[],"outputs":[{"name":"","type":"bytes32","internalType":"bytes32"}],"stateMutability":"view"},{"type":"function","name":"accessRules","inputs":[{"name":"","type":"uint256","internalType":"uint256"},{"name":"","type":"address","internalType":"address"}],"outputs":[{"name":"fromTimestamp","type":"uint256","internalType":"uint256"},{"name":"toTimestamp","type":"uint256","internalType":"uint256"},{"name":"isActive","type":"bool","internalType":"bool"}],"stateMutability":"view"},{"type":"function","name":"addSuperAdmin","inputs":[{"name":"newAdmin","type":"address","internalType":"address"}],"outputs":[],"stateMutability":"nonpayable"},{"type":"function","name":"createRoom","inputs":[{"name":"_name","type":"string","internalType":"string"},{"name":"_ip","type":"string","internalType":"string"}],"outputs":[],"stateMutability":"nonpayable"},{"type":"function","name":"defineDevice","inputs":[{"name":"_roomId","type":"uint256","internalType":"uint256"},{"name":"_name","type":"string","internalType":"string"},{"name":"_pin","type":"uint256","internalType":"uint256"},{"name":"_type","type":"uint8","internalType":"enum AdvancedHomeAutomation.DeviceType"}],"outputs":[],"stateMutability":"nonpayable"},{"type":"function","name":"getRoleAdmin","inputs":[{"name":"role","type":"bytes32","internalType":"bytes32"}],"outputs":[{"name":"","type":"bytes32","internalType":"bytes32"}],"stateMutability":"view"},{"type":"function","name":"grantRole","inputs":[{"name":"role","type":"bytes32","internalType":"bytes32"},{"name":"account","type":"address","internalType":"address"}],"outputs":[],"stateMutability":"nonpayable"},{"type":"function","name":"grantRoomAccess","inputs":[{"name":"_roomId","type":"uint256","internalType":"uint256"},{"name":"_user","type":"address","internalType":"address"},{"name":"_start","type":"uint256","internalType":"uint256"},{"name":"_end","type":"uint256","internalType":"uint256"},{"name":"isOwner","type":"bool","internalType":"bool"}],"outputs":[],"stateMutability":"nonpayable"},{"type":"function","name":"hasRole","inputs":[{"name":"role","type":"bytes32","internalType":"bytes32"},{"name":"account","type":"address","internalType":"address"}],"outputs":[{"name":"","type":"bool","internalType":"bool"}],"stateMutability":"view"},{"type":"function","name":"operateDevice","inputs":[{"name":"_roomId","type":"uint256","internalType":"uint256"},{"name":"_deviceId","type":"uint256","internalType":"uint256"},{"name":"_value","type":"uint256","internalType":"uint256"}],"outputs":[],"stateMutability":"nonpayable"},{"type":"function","name":"renounceRole","inputs":[{"name":"role","type":"bytes32","internalType":"bytes32"},{"name":"callerConfirmation","type":"address","internalType":"address"}],"outputs":[],"stateMutability":"nonpayable"},{"type":"function","name":"revokeRole","inputs":[{"name":"role","type":"bytes32","internalType":"bytes32"},{"name":"account","type":"address","internalType":"address"}],"outputs":[],"stateMutability":"nonpayable"},{"type":"function","name":"roomCount","inputs":[],"outputs":[{"name":"","type":"uint256","internalType":"uint256"}],"stateMutability":"view"},{"type":"function","name":"rooms","inputs":[{"name":"","type":"uint256","internalType":"uint256"}],"outputs":[{"name":"name","type":"string","internalType":"string"},{"name":"espIP","type":"string","internalType":"string"},{"name":"deviceCount","type":"uint256","internalType":"uint256"},{"name":"exists","type":"bool","internalType":"bool"}],"stateMutability":"view"},{"type":"function","name":"supportsInterface","inputs":[{"name":"interfaceId","type":"bytes4","internalType":"bytes4"}],"outputs":[{"name":"","type":"bool","internalType":"bool"}],"stateMutability":"view"},{"type":"function","name":"transferSuperAdmin","inputs":[{"name":"to","type":"address","internalType":"address"}],"outputs":[],"stateMutability":"nonpayable"},{"type":"event","name":"AccessUpdated","inputs":[{"name":"roomId","type":"uint256","indexed":true,"internalType":"uint256"},{"name":"user","type":"address","indexed":false,"internalType":"address"},{"name":"from","type":"uint256","indexed":false,"internalType":"uint256"},{"name":"to","type":"uint256","indexed":false,"internalType":"uint256"}],"anonymous":false},{"type":"event","name":"RoleAdminChanged","inputs":[{"name":"role","type":"bytes32","indexed":true,"internalType":"bytes32"},{"name":"previousAdminRole","type":"bytes32","indexed":true,"internalType":"bytes32"},{"name":"newAdminRole","type":"bytes32","indexed":true,"internalType":"bytes32"}],"anonymous":false},{"type":"event","name":"RoleGranted","inputs":[{"name":"role","type":"bytes32","indexed":true,"internalType":"bytes32"},{"name":"account","type":"address","indexed":true,"internalType":"address"},{"name":"sender","type":"address","indexed":true,"internalType":"address"}],"anonymous":false},{"type":"event","name":"RoleRevoked","inputs":[{"name":"role","type":"bytes32","indexed":true,"internalType":"bytes32"},{"name":"account","type":"address","indexed":true,"internalType":"address"},{"name":"sender","type":"address","indexed":true,"internalType":"address"}],"anonymous":false},{"type":"event","name":"RoleTransferred","inputs":[{"name":"role","type":"bytes32","indexed":true,"internalType":"bytes32"},{"name":"from","type":"address","indexed":true,"internalType":"address"},{"name":"to","type":"address","indexed":true,"internalType":"address"}],"anonymous":false},{"type":"event","name":"StateChanged","inputs":[{"name":"roomId","type":"uint256","indexed":true,"internalType":"uint256"},{"name":"deviceId","type":"uint256","indexed":false,"internalType":"uint256"},{"name":"newValue","type":"uint256","indexed":false,"internalType":"uint256"}],"anonymous":false},{"type":"error","name":"AccessControlBadConfirmation","inputs":[]},{"type":"error","name":"AccessControlUnauthorizedAccount","inputs":[{"name":"account","type":"address","internalType":"address"},{"name":"neededRole","type":"bytes32","internalType":"bytes32"}]}],"bytecode":{"object":"0x608060405234801561000f575f5ffd5b506100225f5f1b3361005960201b60201c565b506100537f7613a25ecc738585a232ad50a301178f12b3ba8887d13e138b523c4269c476893361005960201b60201c565b506101b8565b5f61006a838361014e60201b60201c565b6101445760015f5f8581526020019081526020015f205f015f8473ffffffffffffffffffffffffffffffffffffffff1673ffffffffffffffffffffffffffffffffffffffff1681526020019081526020015f205f6101000a81548160ff0219169083151502179055506100e16101b160201b60201c565b73ffffffffffffffffffffffffffffffffffffffff168273ffffffffffffffffffffffffffffffffffffffff16847f2f8788117e7eff1d82e926ec794901d17c78024a50270940304540a733656f0d60405160405180910390a460019050610148565b5f90505b92915050565b5f5f5f8481526020019081526020015f205f015f8373ffffffffffffffffffffffffffffffffffffffff1673ffffffffffffffffffffffffffffffffffffffff1681526020019081526020015f205f9054906101000a900460ff16905092915050565b5f33905090565b611c0b806101c55f395ff3fe608060405234801561000f575f5ffd5b5060043610610114575f3560e01c806391d14854116100a0578063b3292ff01161006f578063b3292ff0146102dd578063d547741f146102f9578063df93a4e314610315578063fa525fb514610333578063fa68daad1461036557610114565b806391d1485414610255578063a217fddf14610285578063aaab15dd146102a3578063b009e3b8146102bf57610114565b806329e9c277116100e757806329e9c277146101c75780632f2ff15d146101e357806336568abe146101ff5780634115369e1461021b5780634460bdd61461023757610114565b806301ffc9a7146101185780630c6dd9fd146101485780631bae0ac814610164578063248a9ca314610197575b5f5ffd5b610132600480360381019061012d919061106f565b610381565b60405161013f91906110b4565b60405180910390f35b610162600480360381019061015d9190611127565b6103fa565b005b61017e60048036038101906101799190611185565b61047e565b60405161018e949392919061122f565b60405180910390f35b6101b160048036038101906101ac91906112b3565b6105c2565b6040516101be91906112ed565b60405180910390f35b6101e160048036038101906101dc9190611455565b6105de565b005b6101fd60048036038101906101f891906114d5565b610711565b005b610219600480360381019061021491906114d5565b610733565b005b61023560048036038101906102309190611513565b6107ae565b005b61023f610928565b60405161024c91906112ed565b60405180910390f35b61026f600480360381019061026a91906114d5565b61094c565b60405161027c91906110b4565b60405180910390f35b61028d6109af565b60405161029a91906112ed565b60405180910390f35b6102bd60048036038101906102b8919061158d565b6109b5565b005b6102c7610bc6565b6040516102d491906112ed565b60405180910390f35b6102f760048036038101906102f29190611127565b610bea565b005b610313600480360381019061030e91906114d5565b610c43565b005b61031d610c65565b60405161032a9190611604565b60405180910390f35b61034d6004803603810190610348919061161d565b610c6b565b60405161035c9392919061165b565b60405180910390f35b61037f600480360381019061037a9190611690565b610ca8565b005b5f7f7965db0b000000000000000000000000000000000000000000000000000000007bffffffffffffffffffffffffffffffffffffffffffffffffffffffff1916827bffffffffffffffffffffffffffffffffffffffffffffffffffffffff191614806103f357506103f282610d62565b5b9050919050565b7f7613a25ecc738585a232ad50a301178f12b3ba8887d13e138b523c4269c4768961042481610dcb565b61044e7f7613a25ecc738585a232ad50a301178f12b3ba8887d13e138b523c4269c4768983610ddf565b506104797f7613a25ecc738585a232ad50a301178f12b3ba8887d13e138b523c4269c4768933610ec8565b505050565b6001602052805f5260405f205f91509050805f01805461049d90611733565b80601f01602080910402602001604051908101604052809291908181526020018280546104c990611733565b80156105145780601f106104eb57610100808354040283529160200191610514565b820191905f5260205f20905b8154815290600101906020018083116104f757829003601f168201915b50505050509080600101805461052990611733565b80601f016020809104026020016040519081016040528092919081815260200182805461055590611733565b80156105a05780601f10610577576101008083540402835291602001916105a0565b820191905f5260205f20905b81548152906001019060200180831161058357829003601f168201915b505050505090806002015490806004015f9054906101000a900460ff16905084565b5f5f5f8381526020019081526020015f20600101549050919050565b7f7613a25ecc738585a232ad50a301178f12b3ba8887d13e138b523c4269c4768961060881610dcb565b5f60015f8781526020019081526020015f206002015f815461062990611790565b91905081905590506040518060a0016040528086815260200185815260200184600381111561065b5761065a6117d7565b5b81526020015f81526020016001151581525060015f8881526020019081526020015f206003015f8381526020019081526020015f205f820151815f0190816106a391906119a4565b50602082015181600101556040820151816002015f6101000a81548160ff021916908360038111156106d8576106d76117d7565b5b0217905550606082015181600301556080820151816004015f6101000a81548160ff021916908315150217905550905050505050505050565b61071a826105c2565b61072381610dcb565b61072d8383610ddf565b50505050565b61073b610fb1565b73ffffffffffffffffffffffffffffffffffffffff168173ffffffffffffffffffffffffffffffffffffffff161461079f576040517f6697b23200000000000000000000000000000000000000000000000000000000815260040160405180910390fd5b6107a98282610ec8565b505050565b5f60035f8581526020019081526020015f205f3373ffffffffffffffffffffffffffffffffffffffff1673ffffffffffffffffffffffffffffffffffffffff1681526020019081526020015f2090505f5f825f015414806108125750815f01544210155b801561083057505f8260010154148061082f575081600101544211155b5b905061085c7f7613a25ecc738585a232ad50a301178f12b3ba8887d13e138b523c4269c476893361094c565b8061087d5750816002015f9054906101000a900460ff16801561087c5750805b5b6108bc576040517f08c379a00000000000000000000000000000000000000000000000000000000081526004016108b390611abd565b60405180910390fd5b8260015f8781526020019081526020015f206003015f8681526020019081526020015f2060030181905550847f4e783b715efde58d097be2fe2f2e2bc0bb1df07fd682aeab1d8b4dc063ffdd9a8585604051610919929190611adb565b60405180910390a25050505050565b7f7613a25ecc738585a232ad50a301178f12b3ba8887d13e138b523c4269c4768981565b5f5f5f8481526020019081526020015f205f015f8373ffffffffffffffffffffffffffffffffffffffff1673ffffffffffffffffffffffffffffffffffffffff1681526020019081526020015f205f9054906101000a900460ff16905092915050565b5f5f1b81565b6109df7f7613a25ecc738585a232ad50a301178f12b3ba8887d13e138b523c4269c476893361094c565b80610a745750610a0f7fc5c1b7f9b53e16f690f6f5e1c7cceb2cc02c4869975a088c7400925ad4207cd33361094c565b8015610a73575060035f8681526020019081526020015f205f3373ffffffffffffffffffffffffffffffffffffffff1673ffffffffffffffffffffffffffffffffffffffff1681526020019081526020015f206002015f9054906101000a900460ff165b5b610ab3576040517f08c379a0000000000000000000000000000000000000000000000000000000008152600401610aaa90611b4c565b60405180910390fd5b60405180606001604052808481526020018381526020016001151581525060035f8781526020019081526020015f205f8673ffffffffffffffffffffffffffffffffffffffff1673ffffffffffffffffffffffffffffffffffffffff1681526020019081526020015f205f820151815f0155602082015181600101556040820151816002015f6101000a81548160ff0219169083151502179055509050508015610b8357610b817fc5c1b7f9b53e16f690f6f5e1c7cceb2cc02c4869975a088c7400925ad4207cd385610ddf565b505b847f194e01382f1246fb561dfe1100773dcd816e9a8b500f326675d4f18a2a1a8ab7858585604051610bb793929190611b79565b60405180910390a25050505050565b7fc5c1b7f9b53e16f690f6f5e1c7cceb2cc02c4869975a088c7400925ad4207cd381565b7f7613a25ecc738585a232ad50a301178f12b3ba8887d13e138b523c4269c47689610c1481610dcb565b610c3e7f7613a25ecc738585a232ad50a301178f12b3ba8887d13e138b523c4269c4768983610ddf565b505050565b610c4c826105c2565b610c5581610dcb565b610c5f8383610ec8565b50505050565b60025481565b6003602052815f5260405f20602052805f5260405f205f9150915050805f015490806001015490806002015f9054906101000a900460ff16905083565b7f7613a25ecc738585a232ad50a301178f12b3ba8887d13e138b523c4269c47689610cd281610dcb565b60025f815480929190610ce490611790565b91905055508260015f60025481526020019081526020015f205f019081610d0b91906119a4565b508160015f60025481526020019081526020015f206001019081610d2f91906119a4565b506001805f60025481526020019081526020015f206004015f6101000a81548160ff021916908315150217905550505050565b5f7f01ffc9a7000000000000000000000000000000000000000000000000000000007bffffffffffffffffffffffffffffffffffffffffffffffffffffffff1916827bffffffffffffffffffffffffffffffffffffffffffffffffffffffff1916149050919050565b610ddc81610dd7610fb1565b610fb8565b50565b5f610dea838361094c565b610ebe5760015f5f8581526020019081526020015f205f015f8473ffffffffffffffffffffffffffffffffffffffff1673ffffffffffffffffffffffffffffffffffffffff1681526020019081526020015f205f6101000a81548160ff021916908315150217905550610e5b610fb1565b73ffffffffffffffffffffffffffffffffffffffff168273ffffffffffffffffffffffffffffffffffffffff16847f2f8788117e7eff1d82e926ec794901d17c78024a50270940304540a733656f0d60405160405180910390a460019050610ec2565b5f90505b92915050565b5f610ed3838361094c565b15610fa7575f5f5f8581526020019081526020015f205f015f8473ffffffffffffffffffffffffffffffffffffffff1673ffffffffffffffffffffffffffffffffffffffff1681526020019081526020015f205f6101000a81548160ff021916908315150217905550610f44610fb1565b73ffffffffffffffffffffffffffffffffffffffff168273ffffffffffffffffffffffffffffffffffffffff16847ff6391f5c32d9c69d2a47ea670b442974b53935d1edc7fd64eb21e047a839171b60405160405180910390a460019050610fab565b5f90505b92915050565b5f33905090565b610fc2828261094c565b6110055780826040517fe2517d3f000000000000000000000000000000000000000000000000000000008152600401610ffc929190611bae565b60405180910390fd5b5050565b5f604051905090565b5f5ffd5b5f5ffd5b5f7fffffffff0000000000000000000000000000000000000000000000000000000082169050919050565b61104e8161101a565b8114611058575f5ffd5b50565b5f8135905061106981611045565b92915050565b5f6020828403121561108457611083611012565b5b5f6110918482850161105b565b91505092915050565b5f8115159050919050565b6110ae8161109a565b82525050565b5f6020820190506110c75f8301846110a5565b92915050565b5f73ffffffffffffffffffffffffffffffffffffffff82169050919050565b5f6110f6826110cd565b9050919050565b611106816110ec565b8114611110575f5ffd5b50565b5f81359050611121816110fd565b92915050565b5f6020828403121561113c5761113b611012565b5b5f61114984828501611113565b91505092915050565b5f819050919050565b61116481611152565b811461116e575f5ffd5b50565b5f8135905061117f8161115b565b92915050565b5f6020828403121561119a57611199611012565b5b5f6111a784828501611171565b91505092915050565b5f81519050919050565b5f82825260208201905092915050565b8281835e5f83830152505050565b5f601f19601f8301169050919050565b5f6111f2826111b0565b6111fc81856111ba565b935061120c8185602086016111ca565b611215816111d8565b840191505092915050565b61122981611152565b82525050565b5f6080820190508181035f83015261124781876111e8565b9050818103602083015261125b81866111e8565b905061126a6040830185611220565b61127760608301846110a5565b95945050505050565b5f819050919050565b61129281611280565b811461129c575f5ffd5b50565b5f813590506112ad81611289565b92915050565b5f602082840312156112c8576112c7611012565b5b5f6112d58482850161129f565b91505092915050565b6112e781611280565b82525050565b5f6020820190506113005f8301846112de565b92915050565b5f5ffd5b5f5ffd5b7f4e487b71000000000000000000000000000000000000000000000000000000005f52604160045260245ffd5b611344826111d8565b810181811067ffffffffffffffff821117156113635761136261130e565b5b80604052505050565b5f611375611009565b9050611381828261133b565b919050565b5f67ffffffffffffffff8211156113a05761139f61130e565b5b6113a9826111d8565b9050602081019050919050565b828183375f83830152505050565b5f6113d66113d184611386565b61136c565b9050828152602081018484840111156113f2576113f161130a565b5b6113fd8482856113b6565b509392505050565b5f82601f83011261141957611418611306565b5b81356114298482602086016113c4565b91505092915050565b6004811061143e575f5ffd5b50565b5f8135905061144f81611432565b92915050565b5f5f5f5f6080858703121561146d5761146c611012565b5b5f61147a87828801611171565b945050602085013567ffffffffffffffff81111561149b5761149a611016565b5b6114a787828801611405565b93505060406114b887828801611171565b92505060606114c987828801611441565b91505092959194509250565b5f5f604083850312156114eb576114ea611012565b5b5f6114f88582860161129f565b925050602061150985828601611113565b9150509250929050565b5f5f5f6060848603121561152a57611529611012565b5b5f61153786828701611171565b935050602061154886828701611171565b925050604061155986828701611171565b9150509250925092565b61156c8161109a565b8114611576575f5ffd5b50565b5f8135905061158781611563565b92915050565b5f5f5f5f5f60a086880312156115a6576115a5611012565b5b5f6115b388828901611171565b95505060206115c488828901611113565b94505060406115d588828901611171565b93505060606115e688828901611171565b92505060806115f788828901611579565b9150509295509295909350565b5f6020820190506116175f830184611220565b92915050565b5f5f6040838503121561163357611632611012565b5b5f61164085828601611171565b925050602061165185828601611113565b9150509250929050565b5f60608201905061166e5f830186611220565b61167b6020830185611220565b61168860408301846110a5565b949350505050565b5f5f604083850312156116a6576116a5611012565b5b5f83013567ffffffffffffffff8111156116c3576116c2611016565b5b6116cf85828601611405565b925050602083013567ffffffffffffffff8111156116f0576116ef611016565b5b6116fc85828601611405565b9150509250929050565b7f4e487b71000000000000000000000000000000000000000000000000000000005f52602260045260245ffd5b5f600282049050600182168061174a57607f821691505b60208210810361175d5761175c611706565b5b50919050565b7f4e487b71000000000000000000000000000000000000000000000000000000005f52601160045260245ffd5b5f61179a82611152565b91507fffffffffffffffffffffffffffffffffffffffffffffffffffffffffffffffff82036117cc576117cb611763565b5b600182019050919050565b7f4e487b71000000000000000000000000000000000000000000000000000000005f52602160045260245ffd5b5f819050815f5260205f209050919050565b5f6020601f8301049050919050565b5f82821b905092915050565b5f600883026118607fffffffffffffffffffffffffffffffffffffffffffffffffffffffffffffffff82611825565b61186a8683611825565b95508019841693508086168417925050509392505050565b5f819050919050565b5f6118a56118a061189b84611152565b611882565b611152565b9050919050565b5f819050919050565b6118be8361188b565b6118d26118ca826118ac565b848454611831565b825550505050565b5f5f905090565b6118e96118da565b6118f48184846118b5565b505050565b5b818110156119175761190c5f826118e1565b6001810190506118fa565b5050565b601f82111561195c5761192d81611804565b61193684611816565b81016020851015611945578190505b61195961195185611816565b8301826118f9565b50505b505050565b5f82821c905092915050565b5f61197c5f1984600802611961565b1980831691505092915050565b5f611994838361196d565b9150826002028217905092915050565b6119ad826111b0565b67ffffffffffffffff8111156119c6576119c561130e565b5b6119d08254611733565b6119db82828561191b565b5f60209050601f831160018114611a0c575f84156119fa578287015190505b611a048582611989565b865550611a6b565b601f198416611a1a86611804565b5f5b82811015611a4157848901518255600182019150602085019450602081019050611a1c565b86831015611a5e5784890151611a5a601f89168261196d565b8355505b6001600288020188555050505b505050505050565b7f4163636573732044656e696564000000000000000000000000000000000000005f82015250565b5f611aa7600d836111ba565b9150611ab282611a73565b602082019050919050565b5f6020820190508181035f830152611ad481611a9b565b9050919050565b5f604082019050611aee5f830185611220565b611afb6020830184611220565b9392505050565b7f556e617574686f72697a656400000000000000000000000000000000000000005f82015250565b5f611b36600c836111ba565b9150611b4182611b02565b602082019050919050565b5f6020820190508181035f830152611b6381611b2a565b9050919050565b611b73816110ec565b82525050565b5f606082019050611b8c5f830186611b6a565b611b996020830185611220565b611ba66040830184611220565b949350505050565b5f604082019050611bc15f830185611b6a565b611bce60208301846112de565b939250505056fea26469706673582212209fb2b8d96c70395ade9d214bfb59367aa235476f24e36db4581f65a30369d3af64736f6c634300081e0033","linkReferences":{}},"methodIdentifiers":{"DEFAULT_ADMIN_ROLE()":"a217fddf","ROOM_OWNER_ROLE()":"b009e3b8","SUPER_ADMIN_ROLE()":"4460bdd6","accessRules(uint256,address)":"fa525fb5","addSuperAdmin(address)":"b3292ff0","createRoom(string,string)":"fa68daad","defineDevice(uint256,string,uint256,uint8)":"29e9c277","getRoleAdmin(bytes32)":"248a9ca3","grantRole(bytes32,address)":"2f2ff15d","grantRoomAccess(uint256,address,uint256,uint256,bool)":"aaab15dd","hasRole(bytes32,address)":"91d14854","operateDevice(uint256,uint256,uint256)":"4115369e","renounceRole(bytes32,address)":"36568abe","revokeRole(bytes32,address)":"d547741f","roomCount()":"df93a4e3","rooms(uint256)":"1bae0ac8","supportsInterface(bytes4)":"01ffc9a7","transferSuperAdmin(address)":"0c6dd9fd"},"id":5}