{"abi":[{"type":"constructor","inputs":[],"stateMutability":"nonpayable"},{"type":"function","name":"DEFAULT_ADMIN_ROLE","inputs":[],"outputs":[{"name":"","type":"bytes32","internalType":"bytes32"}],"stateMutability":"view"},{"type":"function","name":"GUEST_ROLE","inputs":[],"outputs":[{"name":"","type":"bytes32","internalType":"bytes32"}],"stateMutability":"view"},{"type":"function","name":"ROOM_ADMIN_ROLE","inputs":[],"outputs":[{"name":"","type":"bytes32","internalType":"bytes32"}],"stateMutability":"view"},{"type":"function","name":"SUPER_ADMIN_ROLE","inputs":[],"outputs":[{"name":"","type":"bytes32","internalType":"bytes32"}],"stateMutability":"view"},{"type":"function","name":"accessRules","inputs":[{"name":"","type":"uint256","internalType":"uint256"},{"name":"","type":"address","internalType":"address"}],"outputs":[{"name":"fromTimestamp","type":"uint256","internalType":"uint256"},{"name":"toTimestamp","type":"uint256","internalType":"uint256"},{"name":"isActive","type":"bool","internalType":"bool"}],"stateMutability":"view"},{"type":"function","name":"addSuperAdmin","inputs":[{"name":"newAdmin","type":"address","internalType":"address"}],"outputs":[],"stateMutability":"nonpayable"},{"type":"function","name":"createRoom","inputs":[{"name":"_name","type":"string","internalType":"string"},{"name":"_ip","type":"string","internalType":"string"}],"outputs":[],"stateMutability":"nonpayable"},{"type":"function","name":"defineDevice","inputs":[{"name":"_roomId","type":"uint256","internalType":"uint256"},{"name":"_name","type":"string","internalType":"string"},{"name":"_pin","type":"uint256","internalType":"uint256"},{"name":"_type","type":"uint8","internalType":"enum AdvancedHomeAutomation.DeviceType"}],"outputs":[],"stateMutability":"nonpayable"},{"type":"function","name":"getDeviceStatus","inputs":[{"name":"_rId","type":"uint256","internalType":"uint256"},{"name":"_dId","type":"uint256","internalType":"uint256"}],"outputs":[{"name":"","type":"uint256","internalType":"uint256"}],"stateMutability":"view"},{"type":"function","name":"getRoleAdmin","inputs":[{"name":"role","type":"bytes32","internalType":"bytes32"}],"outputs":[{"name":"","type":"bytes32","internalType":"bytes32"}],"stateMutability":"view"},{"type":"function","name":"grantAccess","inputs":[{"name":"_roomId","type":"uint256","internalType":"uint256"},{"name":"_user","type":"address","internalType":"address"},{"name":"_start","type":"uint256","internalType":"uint256"},{"name":"_end","type":"uint256","internalType":"uint256"},{"name":"_role","type":"bytes32","internalType":"bytes32"}],"outputs":[],"stateMutability":"nonpayable"},{"type":"function","name":"grantRole","inputs":[{"name":"role","type":"bytes32","internalType":"bytes32"},{"name":"account","type":"address","internalType":"address"}],"outputs":[],"stateMutability":"nonpayable"},{"type":"function","name":"hasRole","inputs":[{"name":"role","type":"bytes32","internalType":"bytes32"},{"name":"account","type":"address","internalType":"address"}],"outputs":[{"name":"","type":"bool","internalType":"bool"}],"stateMutability":"view"},{"type":"function","name":"operateDevice","inputs":[{"name":"_roomId","type":"uint256","internalType":"uint256"},{"name":"_deviceId","type":"uint256","internalType":"uint256"},{"name":"_value","type":"uint256","internalType":"uint256"}],"outputs":[],"stateMutability":"nonpayable"},{"type":"function","name":"removeSuperAdmin","inputs":[{"name":"admin","type":"address","internalType":"address"}],"outputs":[],"stateMutability":"nonpayable"},{"type":"function","name":"renounceRole","inputs":[{"name":"role","type":"bytes32","internalType":"bytes32"},{"name":"callerConfirmation","type":"address","internalType":"address"}],"outputs":[],"stateMutability":"nonpayable"},{"type":"function","name":"revokeAccess","inputs":[{"name":"_roomId","type":"uint256","internalType":"uint256"},{"name":"_user","type":"address","internalType":"address"},{"name":"_role","type":"bytes32","internalType":"bytes32"}],"outputs":[],"stateMutability":"nonpayable"},{"type":"function","name":"revokeRole","inputs":[{"name":"role","type":"bytes32","internalType":"bytes32"},{"name":"account","type":"address","internalType":"address"}],"outputs":[],"stateMutability":"nonpayable"},{"type":"function","name":"roomCount","inputs":[],"outputs":[{"name":"","type":"uint256","internalType":"uint256"}],"stateMutability":"view"},{"type":"function","name":"rooms","inputs":[{"name":"","type":"uint256","internalType":"uint256"}],"outputs":[{"name":"name","type":"string","internalType":"string"},{"name":"espIP","type":"string","internalType":"string"},{"name":"deviceCount","type":"uint256","internalType":"uint256"},{"name":"exists","type":"bool","internalType":"bool"}],"stateMutability":"view"},{"type":"function","name":"supportsInterface","inputs":[{"name":"interfaceId","type":"bytes4","internalType":"bytes4"}],"outputs":[{"name":"","type":"bool","internalType":"bool"}],"stateMutability":"view"},{"type":"event","name":"AccessUpdated","inputs":[{"name":"roomId","type":"uint256","indexed":true,"internalType":"uint256"},{"name":"user","type":"address","indexed":true,"internalType":"address"},{"name":"from","type":"uint256","indexed":false,"internalType":"uint256"},{"name":"to","type":"uint256","indexed":false,"internalType":"uint256"},{"name":"role","type":"bytes32","indexed":false,"internalType":"bytes32"}],"anonymous":false},{"type":"event","name":"RoleAdminChanged","inputs":[{"name":"role","type":"bytes32","indexed":true,"internalType":"bytes32"},{"name":"previousAdminRole","type":"bytes32","indexed":true,"internalType":"bytes32"},{"name":"newAdminRole","type":"bytes32","indexed":true,"internalType":"bytes32"}],"anonymous":false},{"type":"event","name":"RoleGranted","inputs":[{"name":"role","type":"bytes32","indexed":true,"internalType":"bytes32"},{"name":"account","type":"address","indexed":true,"internalType":"address"},{"name":"sender","type":"address","indexed":true,"internalType":"address"}],"anonymous":false},{"type":"event","name":"RoleRevoked","inputs":[{"name":"role","type":"bytes32","indexed":true,"internalType":"bytes32"},{"name":"account","type":"address","indexed":true,"internalType":"address"},{"name":"sender","type":"address","indexed":true,"internalType":"address"}],"anonymous":false},{"type":"event","name":"RoomCreated","inputs":[{"name":"roomId","type":"uint256","indexed":true,"internalType":"uint256"},{"name":"name","type":"string","indexed":false,"internalType":"string"}],"anonymous":false},{"type":"event","name":"StateChanged","inputs":[{"name":"roomId","type":"uint256","indexed":false,"internalType":"uint256"},{"name":"deviceId","type":"uint256","indexed":false,"internalType":"uint256"},{"name":"newValue","type":"uint256","indexed":false,"internalType":"uint256"}],"anonymous":false},{"type":"error","name":"AccessControlBadConfirmation","inputs":[]},{"type":"error","name":"AccessControlUnauthorizedAccount","inputs":[{"name":"account","type":"address","internalType":"address"},{"name":"neededRole","type":"bytes32","internalType":"bytes32"}]}],"bytecode":{"object":"0x608060405234801561000f575f5ffd5b506100225f5f1b3361005960201b60201c565b506100537f7613a25ecc738585a232ad50a301178f12b3ba8887d13e138b523c4269c476893361005960201b60201c565b506101b8565b5f61006a838361014e60201b60201c565b6101445760015f5f8581526020019081526020015f205f015f8473ffffffffffffffffffffffffffffffffffffffff1673ffffffffffffffffffffffffffffffffffffffff1681526020019081526020015f205f6101000a81548160ff0219169083151502179055506100e16101b160201b60201c565b73ffffffffffffffffffffffffffffffffffffffff168273ffffffffffffffffffffffffffffffffffffffff16847f2f8788117e7eff1d82e926ec794901d17c78024a50270940304540a733656f0d60405160405180910390a460019050610148565b5f90505b92915050565b5f5f5f8481526020019081526020015f205f015f8373ffffffffffffffffffffffffffffffffffffffff1673ffffffffffffffffffffffffffffffffffffffff1681526020019081526020015f205f9054906101000a900460ff16905092915050565b5f33905090565b612136806101c55f395ff3fe608060405234801561000f575f5ffd5b5060043610610135575f3560e01c80635c7e8863116100b6578063b3292ff01161007a578063b3292ff01461034c578063d547741f14610368578063df39950814610384578063df93a4e3146103a0578063fa525fb5146103be578063fa68daad146103f057610135565b80635c7e8863146102a65780636af54a26146102c45780638437db89146102e057806391d14854146102fe578063a217fddf1461032e57610135565b80632f2ff15d116100fd5780632f2ff15d1461021857806336568abe146102345780634115369e146102505780634460bdd61461026c5780634902e4aa1461028a57610135565b806301ffc9a7146101395780631bae0ac8146101695780631d16f5c91461019c578063248a9ca3146101cc57806329e9c277146101fc575b5f5ffd5b610153600480360381019061014e9190611368565b61040c565b60405161016091906113ad565b60405180910390f35b610183600480360381019061017e91906113f9565b610485565b60405161019394939291906114a3565b60405180910390f35b6101b660048036038101906101b191906114f4565b6105c9565b6040516101c39190611532565b60405180910390f35b6101e660048036038101906101e1919061157e565b6105f9565b6040516101f391906115b8565b60405180910390f35b61021660048036038101906102119190611720565b610615565b005b610232600480360381019061022d91906117fa565b6107a8565b005b61024e600480360381019061024991906117fa565b6107ca565b005b61026a60048036038101906102659190611838565b610845565b005b610274610a95565b60405161028191906115b8565b60405180910390f35b6102a4600480360381019061029f9190611888565b610ab9565b005b6102ae610b80565b6040516102bb91906115b8565b60405180910390f35b6102de60048036038101906102d991906118b3565b610ba4565b005b6102e8610c45565b6040516102f591906115b8565b60405180910390f35b610318600480360381019061031391906117fa565b610c69565b60405161032591906113ad565b60405180910390f35b610336610ccc565b60405161034391906115b8565b60405180910390f35b61036660048036038101906103619190611888565b610cd2565b005b610382600480360381019061037d91906117fa565b610d2b565b005b61039e60048036038101906103999190611903565b610d4d565b005b6103a8610eb9565b6040516103b59190611532565b60405180910390f35b6103d860048036038101906103d3919061197a565b610ebf565b6040516103e7939291906119b8565b60405180910390f35b61040a600480360381019061040591906119ed565b610efc565b005b5f7f7965db0b000000000000000000000000000000000000000000000000000000007bffffffffffffffffffffffffffffffffffffffffffffffffffffffff1916827bffffffffffffffffffffffffffffffffffffffffffffffffffffffff1916148061047e575061047d82610ff0565b5b9050919050565b6001602052805f5260405f205f91509050805f0180546104a490611a90565b80601f01602080910402602001604051908101604052809291908181526020018280546104d090611a90565b801561051b5780601f106104f25761010080835404028352916020019161051b565b820191905f5260205f20905b8154815290600101906020018083116104fe57829003601f168201915b50505050509080600101805461053090611a90565b80601f016020809104026020016040519081016040528092919081815260200182805461055c90611a90565b80156105a75780601f1061057e576101008083540402835291602001916105a7565b820191905f5260205f20905b81548152906001019060200180831161058a57829003601f168201915b505050505090806002015490806004015f9054906101000a900460ff16905084565b5f60015f8481526020019081526020015f206003015f8381526020019081526020015f2060030154905092915050565b5f5f5f8381526020019081526020015f20600101549050919050565b7f7613a25ecc738585a232ad50a301178f12b3ba8887d13e138b523c4269c4768961063f81611059565b60015f8681526020019081526020015f206004015f9054906101000a900460ff1661069f576040517f08c379a000000000000000000000000000000000000000000000000000000000815260040161069690611b0a565b60405180910390fd5b5f60015f8781526020019081526020015f206002015f81546106c090611b55565b91905081905590506040518060a001604052808681526020018581526020018460038111156106f2576106f1611b9c565b5b81526020015f81526020016001151581525060015f8881526020019081526020015f206003015f8381526020019081526020015f205f820151815f01908161073a9190611d69565b50602082015181600101556040820151816002015f6101000a81548160ff0219169083600381111561076f5761076e611b9c565b5b0217905550606082015181600301556080820151816004015f6101000a81548160ff021916908315150217905550905050505050505050565b6107b1826105f9565b6107ba81611059565b6107c4838361106d565b50505050565b6107d2611156565b73ffffffffffffffffffffffffffffffffffffffff168173ffffffffffffffffffffffffffffffffffffffff1614610836576040517f6697b23200000000000000000000000000000000000000000000000000000000815260040160405180910390fd5b610840828261115d565b505050565b60015f8481526020019081526020015f206003015f8381526020019081526020015f206004015f9054906101000a900460ff166108b7576040517f08c379a00000000000000000000000000000000000000000000000000000000081526004016108ae90611e82565b60405180910390fd5b6108e17f7613a25ecc738585a232ad50a301178f12b3ba8887d13e138b523c4269c4768933610c69565b156108f6576108f1838383611246565b610a90565b5f60035f8581526020019081526020015f205f3373ffffffffffffffffffffffffffffffffffffffff1673ffffffffffffffffffffffffffffffffffffffff1681526020019081526020015f209050806002015f9054906101000a900460ff16610995576040517f08c379a000000000000000000000000000000000000000000000000000000000815260040161098c90611eea565b60405180910390fd5b5f5f825f015414806109aa5750815f01544210155b80156109c857505f826001015414806109c7575081600101544211155b5b90506109f47fd447a3c4dd90ef7c021891ef063fd5f30240ff1a4b31f6c1767ba066aaf86dca33610c69565b15610a0957610a04858585611246565b610a8d565b610a337fb6a185f76b0ff8a0f9708ffce8e6b63ce2df58f28ad66179fb4e230e98d0a52f33610c69565b8015610a3c5750805b15610a5157610a4c858585611246565b610a8c565b6040517f08c379a0000000000000000000000000000000000000000000000000000000008152600401610a8390611f52565b60405180910390fd5b5b50505b505050565b7f7613a25ecc738585a232ad50a301178f12b3ba8887d13e138b523c4269c4768981565b7f7613a25ecc738585a232ad50a301178f12b3ba8887d13e138b523c4269c47689610ae381611059565b3373ffffffffffffffffffffffffffffffffffffffff168273ffffffffffffffffffffffffffffffffffffffff1603610b51576040517f08c379a0000000000000000000000000000000000000000000000000000000008152600401610b4890611fba565b60405180910390fd5b610b7b7f7613a25ecc738585a232ad50a301178f12b3ba8887d13e138b523c4269c476898361115d565b505050565b7fb6a185f76b0ff8a0f9708ffce8e6b63ce2df58f28ad66179fb4e230e98d0a52f81565b7f7613a25ecc738585a232ad50a301178f12b3ba8887d13e138b523c4269c47689610bce81611059565b5f60035f8681526020019081526020015f205f8573ffffffffffffffffffffffffffffffffffffffff1673ffffffffffffffffffffffffffffffffffffffff1681526020019081526020015f206002015f6101000a81548160ff021916908315150217905550610c3e828461115d565b5050505050565b7fd447a3c4dd90ef7c021891ef063fd5f30240ff1a4b31f6c1767ba066aaf86dca81565b5f5f5f8481526020019081526020015f205f015f8373ffffffffffffffffffffffffffffffffffffffff1673ffffffffffffffffffffffffffffffffffffffff1681526020019081526020015f205f9054906101000a900460ff16905092915050565b5f5f1b81565b7f7613a25ecc738585a232ad50a301178f12b3ba8887d13e138b523c4269c47689610cfc81611059565b610d267f7613a25ecc738585a232ad50a301178f12b3ba8887d13e138b523c4269c476898361106d565b505050565b610d34826105f9565b610d3d81611059565b610d47838361115d565b50505050565b610d777f7613a25ecc738585a232ad50a301178f12b3ba8887d13e138b523c4269c4768933610c69565b610db6576040517f08c379a0000000000000000000000000000000000000000000000000000000008152600401610dad90612022565b60405180910390fd5b60405180606001604052808481526020018381526020016001151581525060035f8781526020019081526020015f205f8673ffffffffffffffffffffffffffffffffffffffff1673ffffffffffffffffffffffffffffffffffffffff1681526020019081526020015f205f820151815f0155602082015181600101556040820151816002015f6101000a81548160ff021916908315150217905550905050610e5e818561106d565b508373ffffffffffffffffffffffffffffffffffffffff16857fc761ffe24f37f69b18d4ab526796cab2020e38194ecc4598faa2c6ef62204e26858585604051610eaa93929190612040565b60405180910390a35050505050565b60025481565b6003602052815f5260405f20602052805f5260405f205f9150915050805f015490806001015490806002015f9054906101000a900460ff16905083565b7f7613a25ecc738585a232ad50a301178f12b3ba8887d13e138b523c4269c47689610f2681611059565b60025f815480929190610f3890611b55565b91905055508260015f60025481526020019081526020015f205f019081610f5f9190611d69565b508160015f60025481526020019081526020015f206001019081610f839190611d69565b506001805f60025481526020019081526020015f206004015f6101000a81548160ff0219169083151502179055506002547f37e1e413eec6f4b5fb3342770b4c3e7ad2b61d2300fe066b16ddb42eb3d9438b84604051610fe39190612075565b60405180910390a2505050565b5f7f01ffc9a7000000000000000000000000000000000000000000000000000000007bffffffffffffffffffffffffffffffffffffffffffffffffffffffff1916827bffffffffffffffffffffffffffffffffffffffffffffffffffffffff1916149050919050565b61106a81611065611156565b6112b1565b50565b5f6110788383610c69565b61114c5760015f5f8581526020019081526020015f205f015f8473ffffffffffffffffffffffffffffffffffffffff1673ffffffffffffffffffffffffffffffffffffffff1681526020019081526020015f205f6101000a81548160ff0219169083151502179055506110e9611156565b73ffffffffffffffffffffffffffffffffffffffff168273ffffffffffffffffffffffffffffffffffffffff16847f2f8788117e7eff1d82e926ec794901d17c78024a50270940304540a733656f0d60405160405180910390a460019050611150565b5f90505b92915050565b5f33905090565b5f6111688383610c69565b1561123c575f5f5f8581526020019081526020015f205f015f8473ffffffffffffffffffffffffffffffffffffffff1673ffffffffffffffffffffffffffffffffffffffff1681526020019081526020015f205f6101000a81548160ff0219169083151502179055506111d9611156565b73ffffffffffffffffffffffffffffffffffffffff168273ffffffffffffffffffffffffffffffffffffffff16847ff6391f5c32d9c69d2a47ea670b442974b53935d1edc7fd64eb21e047a839171b60405160405180910390a460019050611240565b5f90505b92915050565b8060015f8581526020019081526020015f206003015f8481526020019081526020015f20600301819055507f4e783b715efde58d097be2fe2f2e2bc0bb1df07fd682aeab1d8b4dc063ffdd9a8383836040516112a493929190612095565b60405180910390a1505050565b6112bb8282610c69565b6112fe5780826040517fe2517d3f0000000000000000000000000000000000000000000000000000000081526004016112f59291906120d9565b60405180910390fd5b5050565b5f604051905090565b5f5ffd5b5f5ffd5b5f7fffffffff0000000000000000000000000000000000000000000000000000000082169050919050565b61134781611313565b8114611351575f5ffd5b50565b5f813590506113628161133e565b92915050565b5f6020828403121561137d5761137c61130b565b5b5f61138a84828501611354565b91505092915050565b5f8115159050919050565b6113a781611393565b82525050565b5f6020820190506113c05f83018461139e565b92915050565b5f819050919050565b6113d8816113c6565b81146113e2575f5ffd5b50565b5f813590506113f3816113cf565b92915050565b5f6020828403121561140e5761140d61130b565b5b5f61141b848285016113e5565b91505092915050565b5f81519050919050565b5f82825260208201905092915050565b8281835e5f83830152505050565b5f601f19601f8301169050919050565b5f61146682611424565b611470818561142e565b935061148081856020860161143e565b6114898161144c565b840191505092915050565b61149d816113c6565b82525050565b5f6080820190508181035f8301526114bb818761145c565b905081810360208301526114cf818661145c565b90506114de6040830185611494565b6114eb606083018461139e565b95945050505050565b5f5f6040838503121561150a5761150961130b565b5b5f611517858286016113e5565b9250506020611528858286016113e5565b9150509250929050565b5f6020820190506115455f830184611494565b92915050565b5f819050919050565b61155d8161154b565b8114611567575f5ffd5b50565b5f8135905061157881611554565b92915050565b5f602082840312156115935761159261130b565b5b5f6115a08482850161156a565b91505092915050565b6115b28161154b565b82525050565b5f6020820190506115cb5f8301846115a9565b92915050565b5f5ffd5b5f5ffd5b7f4e487b71000000000000000000000000000000000000000000000000000000005f52604160045260245ffd5b61160f8261144c565b810181811067ffffffffffffffff8211171561162e5761162d6115d9565b5b80604052505050565b5f611640611302565b905061164c8282611606565b919050565b5f67ffffffffffffffff82111561166b5761166a6115d9565b5b6116748261144c565b9050602081019050919050565b828183375f83830152505050565b5f6116a161169c84611651565b611637565b9050828152602081018484840111156116bd576116bc6115d5565b5b6116c8848285611681565b509392505050565b5f82601f8301126116e4576116e36115d1565b5b81356116f484826020860161168f565b91505092915050565b60048110611709575f5ffd5b50565b5f8135905061171a816116fd565b92915050565b5f5f5f5f608085870312156117385761173761130b565b5b5f611745878288016113e5565b945050602085013567ffffffffffffffff8111156117665761176561130f565b5b611772878288016116d0565b9350506040611783878288016113e5565b92505060606117948782880161170c565b91505092959194509250565b5f73ffffffffffffffffffffffffffffffffffffffff82169050919050565b5f6117c9826117a0565b9050919050565b6117d9816117bf565b81146117e3575f5ffd5b50565b5f813590506117f4816117d0565b92915050565b5f5f604083850312156118105761180f61130b565b5b5f61181d8582860161156a565b925050602061182e858286016117e6565b9150509250929050565b5f5f5f6060848603121561184f5761184e61130b565b5b5f61185c868287016113e5565b935050602061186d868287016113e5565b925050604061187e868287016113e5565b9150509250925092565b5f6020828403121561189d5761189c61130b565b5b5f6118aa848285016117e6565b91505092915050565b5f5f5f606084860312156118ca576118c961130b565b5b5f6118d7868287016113e5565b93505060206118e8868287016117e6565b92505060406118f98682870161156a565b9150509250925092565b5f5f5f5f5f60a0868803121561191c5761191b61130b565b5b5f611929888289016113e5565b955050602061193a888289016117e6565b945050604061194b888289016113e5565b935050606061195c888289016113e5565b925050608061196d8882890161156a565b9150509295509295909350565b5f5f604083850312156119905761198f61130b565b5b5f61199d858286016113e5565b92505060206119ae858286016117e6565b9150509250929050565b5f6060820190506119cb5f830186611494565b6119d86020830185611494565b6119e5604083018461139e565b949350505050565b5f5f60408385031215611a0357611a0261130b565b5b5f83013567ffffffffffffffff811115611a2057611a1f61130f565b5b611a2c858286016116d0565b925050602083013567ffffffffffffffff811115611a4d57611a4c61130f565b5b611a59858286016116d0565b9150509250929050565b7f4e487b71000000000000000000000000000000000000000000000000000000005f52602260045260245ffd5b5f6002820490506001821680611aa757607f821691505b602082108103611aba57611ab9611a63565b5b50919050565b7f526f6f6d203430340000000000000000000000000000000000000000000000005f82015250565b5f611af460088361142e565b9150611aff82611ac0565b602082019050919050565b5f6020820190508181035f830152611b2181611ae8565b9050919050565b7f4e487b71000000000000000000000000000000000000000000000000000000005f52601160045260245ffd5b5f611b5f826113c6565b91507fffffffffffffffffffffffffffffffffffffffffffffffffffffffffffffffff8203611b9157611b90611b28565b5b600182019050919050565b7f4e487b71000000000000000000000000000000000000000000000000000000005f52602160045260245ffd5b5f819050815f5260205f209050919050565b5f6020601f8301049050919050565b5f82821b905092915050565b5f60088302611c257fffffffffffffffffffffffffffffffffffffffffffffffffffffffffffffffff82611bea565b611c2f8683611bea565b95508019841693508086168417925050509392505050565b5f819050919050565b5f611c6a611c65611c60846113c6565b611c47565b6113c6565b9050919050565b5f819050919050565b611c8383611c50565b611c97611c8f82611c71565b848454611bf6565b825550505050565b5f5f905090565b611cae611c9f565b611cb9818484611c7a565b505050565b5b81811015611cdc57611cd15f82611ca6565b600181019050611cbf565b5050565b601f821115611d2157611cf281611bc9565b611cfb84611bdb565b81016020851015611d0a578190505b611d1e611d1685611bdb565b830182611cbe565b50505b505050565b5f82821c905092915050565b5f611d415f1984600802611d26565b1980831691505092915050565b5f611d598383611d32565b9150826002028217905092915050565b611d7282611424565b67ffffffffffffffff811115611d8b57611d8a6115d9565b5b611d958254611a90565b611da0828285611ce0565b5f60209050601f831160018114611dd1575f8415611dbf578287015190505b611dc98582611d4e565b865550611e30565b601f198416611ddf86611bc9565b5f5b82811015611e0657848901518255600182019150602085019450602081019050611de1565b86831015611e235784890151611e1f601f891682611d32565b8355505b6001600288020188555050505b505050505050565b7f44657669636520343034000000000000000000000000000000000000000000005f82015250565b5f611e6c600a8361142e565b9150611e7782611e38565b602082019050919050565b5f6020820190508181035f830152611e9981611e60565b9050919050565b7f41636365737320496e61637469766500000000000000000000000000000000005f82015250565b5f611ed4600f8361142e565b9150611edf82611ea0565b602082019050919050565b5f6020820190508181035f830152611f0181611ec8565b9050919050565b7f4163636573732044656e6965643a20526f6c652f54696d6520496e76616c69645f82015250565b5f611f3c60208361142e565b9150611f4782611f08565b602082019050919050565b5f6020820190508181035f830152611f6981611f30565b9050919050565b7f43616e6e6f742072656d6f766520796f757273656c66000000000000000000005f82015250565b5f611fa460168361142e565b9150611faf82611f70565b602082019050919050565b5f6020820190508181035f830152611fd181611f98565b9050919050565b7f4f6e6c7920537570657241646d696e2063616e2061737369676e20726f6c65735f82015250565b5f61200c60208361142e565b915061201782611fd8565b602082019050919050565b5f6020820190508181035f83015261203981612000565b9050919050565b5f6060820190506120535f830186611494565b6120606020830185611494565b61206d60408301846115a9565b949350505050565b5f6020820190508181035f83015261208d818461145c565b905092915050565b5f6060820190506120a85f830186611494565b6120b56020830185611494565b6120c26040830184611494565b949350505050565b6120d3816117bf565b82525050565b5f6040820190506120ec5f8301856120ca565b6120f960208301846115a9565b939250505056fea2646970667358221220a2cf04ea79c43477ec3882ae0641f345b54705b9f9e83fdd6d16a3768a78a80c64736f6c634300081e0033","linkReferences":{}},"methodIdentifiers":{"DEFAULT_ADMIN_ROLE()":"a217fddf","GUEST_ROLE()":"5c7e8863","ROOM_ADMIN_ROLE()":"8437db89","SUPER_ADMIN_ROLE()":"4460bdd6","accessRules(uint256,address)":"fa525fb5","addSuperAdmin(address)":"b3292ff0","createRoom(string,string)":"fa68daad","defineDevice(uint256,string,uint256,uint8)":"29e9c277","getDeviceStatus(uint256,uint256)":"1d16f5c9","getRoleAdmin(bytes32)":"248a9ca3","grantAccess(uint256,address,uint256,uint256,bytes32)":"df399508","grantRole(bytes32,address)":"2f2ff15d","hasRole(bytes32,address)":"91d14854","operateDevice(uint256,uint256,uint256)":"4115369e","removeSuperAdmin(address)":"4902e4aa","renounceRole(bytes32,address)":"36568abe","revokeAccess(uint256,address,bytes32)":"6af54a26","revokeRole(bytes32,address)":"d547741f","roomCount()":"df93a4e3","rooms(uint256)":"1bae0ac8","supportsInterface(bytes4)":"01ffc9a7"},"id":5}